{
  "address": "0x1db3dbA31b961aCF73Bb51015D0828ecb94DC440",
  "abi": [
    {
      "inputs": [
        {
          "internalType": "uint256",
          "name": "_locktime",
          "type": "uint256"
        },
        {
          "internalType": "address",
          "name": "dataFeedAddress",
          "type": "address"
        }
      ],
      "stateMutability": "nonpayable",
      "type": "constructor"
    },
    {
      "inputs": [
        {
          "internalType": "uint256",
          "name": "ethAmount",
          "type": "uint256"
        }
      ],
      "name": "convertEthToUsd",
      "outputs": [
        {
          "internalType": "uint256",
          "name": "",
          "type": "uint256"
        }
      ],
      "stateMutability": "view",
      "type": "function"
    },
    {
      "inputs": [],
      "name": "dataFeed",
      "outputs": [
        {
          "internalType": "contract AggregatorV3Interface",
          "name": "",
          "type": "address"
        }
      ],
      "stateMutability": "view",
      "type": "function"
    },
    {
      "inputs": [],
      "name": "deploymentTimestamp",
      "outputs": [
        {
          "internalType": "uint256",
          "name": "",
          "type": "uint256"
        }
      ],
      "stateMutability": "view",
      "type": "function"
    },
    {
      "inputs": [],
      "name": "erc20Addr",
      "outputs": [
        {
          "internalType": "address",
          "name": "",
          "type": "address"
        }
      ],
      "stateMutability": "view",
      "type": "function"
    },
    {
      "inputs": [],
      "name": "fund",
      "outputs": [],
      "stateMutability": "payable",
      "type": "function"
    },
    {
      "inputs": [
        {
          "internalType": "address",
          "name": "",
          "type": "address"
        }
      ],
      "name": "fundersToAmount",
      "outputs": [
        {
          "internalType": "uint256",
          "name": "",
          "type": "uint256"
        }
      ],
      "stateMutability": "view",
      "type": "function"
    },
    {
      "inputs": [],
      "name": "getChainlinkDataFeedLatestAnswer",
      "outputs": [
        {
          "internalType": "int256",
          "name": "",
          "type": "int256"
        }
      ],
      "stateMutability": "view",
      "type": "function"
    },
    {
      "inputs": [],
      "name": "getFund",
      "outputs": [],
      "stateMutability": "nonpayable",
      "type": "function"
    },
    {
      "inputs": [],
      "name": "getFundSuccess",
      "outputs": [
        {
          "internalType": "bool",
          "name": "",
          "type": "bool"
        }
      ],
      "stateMutability": "view",
      "type": "function"
    },
    {
      "inputs": [],
      "name": "locktime",
      "outputs": [
        {
          "internalType": "uint256",
          "name": "",
          "type": "uint256"
        }
      ],
      "stateMutability": "view",
      "type": "function"
    },
    {
      "inputs": [],
      "name": "owner",
      "outputs": [
        {
          "internalType": "address",
          "name": "",
          "type": "address"
        }
      ],
      "stateMutability": "view",
      "type": "function"
    },
    {
      "inputs": [],
      "name": "refund",
      "outputs": [],
      "stateMutability": "nonpayable",
      "type": "function"
    },
    {
      "inputs": [
        {
          "internalType": "address",
          "name": "_erc20Addr",
          "type": "address"
        }
      ],
      "name": "setErc20Addr",
      "outputs": [],
      "stateMutability": "nonpayable",
      "type": "function"
    },
    {
      "inputs": [
        {
          "internalType": "address",
          "name": "funder",
          "type": "address"
        },
        {
          "internalType": "uint256",
          "name": "amountToUpdate",
          "type": "uint256"
        }
      ],
      "name": "setFunderToAmount",
      "outputs": [],
      "stateMutability": "nonpayable",
      "type": "function"
    },
    {
      "inputs": [
        {
          "internalType": "address",
          "name": "newOwner",
          "type": "address"
        }
      ],
      "name": "transferOwnership",
      "outputs": [],
      "stateMutability": "nonpayable",
      "type": "function"
    }
  ],
  "transactionHash": "0x5b304c4f0168c3efdd9b3ef333906951de4329104f99b634306c4d4c8f24f8eb",
  "args": [
    180,
    "0x694AA1769357215DE4FAC081bf1f309aDC325306"
  ],
  "numDeployments": 1,
  "solcInputHash": "3cb226a0fe8080038779ed33251baba8",
  "bytecode": "0x6080604052670de0b6b3a76400006002556000600660146101000a81548160ff02191690831515021790555034801561003757600080fd5b5060405161177938038061177983398181016040528101906100599190610188565b806000806101000a81548173ffffffffffffffffffffffffffffffffffffffff021916908373ffffffffffffffffffffffffffffffffffffffff16021790555033600360006101000a81548173ffffffffffffffffffffffffffffffffffffffff021916908373ffffffffffffffffffffffffffffffffffffffff160217905550426004819055508160058190555050506101c8565b600080fd5b6000819050919050565b610107816100f4565b811461011257600080fd5b50565b600081519050610124816100fe565b92915050565b600073ffffffffffffffffffffffffffffffffffffffff82169050919050565b60006101558261012a565b9050919050565b6101658161014a565b811461017057600080fd5b50565b6000815190506101828161015c565b92915050565b6000806040838503121561019f5761019e6100ef565b5b60006101ad85828601610115565b92505060206101be85828601610173565b9150509250929050565b6115a2806101d76000396000f3fe6080604052600436106100e85760003560e01c80639f883a051161008a578063c086381e11610059578063c086381e1461028d578063d39cf006146102ca578063da4658e0146102f3578063f2fde38b1461031e576100e8565b80639f883a05146101f0578063b60d42881461022d578063bea4dfb514610237578063bfc12c0514610262576100e8565b806361c533b4116100c657806361c533b4146101585780638da5cb5b146101835780638edd6eb6146101ae5780639e42ff90146101c5576100e8565b806313ffff01146100ed578063317e3ce014610116578063590e1ae314610141575b600080fd5b3480156100f957600080fd5b50610114600480360381019061010f9190610cf2565b610347565b005b34801561012257600080fd5b5061012b61041b565b6040516101389190610d2e565b60405180910390f35b34801561014d57600080fd5b50610156610441565b005b34801561016457600080fd5b5061016d61069c565b60405161017a9190610d62565b60405180910390f35b34801561018f57600080fd5b506101986106a2565b6040516101a59190610d2e565b60405180910390f35b3480156101ba57600080fd5b506101c36106c8565b005b3480156101d157600080fd5b506101da6108c9565b6040516101e79190610ddc565b60405180910390f35b3480156101fc57600080fd5b5061021760048036038101906102129190610cf2565b6108ed565b6040516102249190610d62565b60405180910390f35b610235610905565b005b34801561024357600080fd5b5061024c6109fb565b6040516102599190610e10565b60405180910390f35b34801561026e57600080fd5b50610277610a9a565b6040516102849190610d62565b60405180910390f35b34801561029957600080fd5b506102b460048036038101906102af9190610e57565b610aa0565b6040516102c19190610d62565b60405180910390f35b3480156102d657600080fd5b506102f160048036038101906102ec9190610e84565b610ad0565b005b3480156102ff57600080fd5b50610308610ba8565b6040516103159190610edf565b60405180910390f35b34801561032a57600080fd5b5061034560048036038101906103409190610cf2565b610bbb565b005b600360009054906101000a900473ffffffffffffffffffffffffffffffffffffffff1673ffffffffffffffffffffffffffffffffffffffff163373ffffffffffffffffffffffffffffffffffffffff16146103d7576040517f08c379a00000000000000000000000000000000000000000000000000000000081526004016103ce90610f7d565b60405180910390fd5b80600660006101000a81548173ffffffffffffffffffffffffffffffffffffffff021916908373ffffffffffffffffffffffffffffffffffffffff16021790555050565b600660009054906101000a900473ffffffffffffffffffffffffffffffffffffffff1681565b6005546004546104519190610fcc565b4211610492576040517f08c379a00000000000000000000000000000000000000000000000000000000081526004016104899061104c565b60405180910390fd5b68f3f20b8dfa69d000006104a547610aa0565b106104e5576040517f08c379a00000000000000000000000000000000000000000000000000000000081526004016104dc906110b8565b60405180910390fd5b6000600160003373ffffffffffffffffffffffffffffffffffffffff1673ffffffffffffffffffffffffffffffffffffffff1681526020019081526020016000205403610567576040517f08c379a000000000000000000000000000000000000000000000000000000000815260040161055e90611124565b60405180910390fd5b60003373ffffffffffffffffffffffffffffffffffffffff16600160003373ffffffffffffffffffffffffffffffffffffffff1673ffffffffffffffffffffffffffffffffffffffff168152602001908152602001600020546040516105cc90611175565b60006040518083038185875af1925050503d8060008114610609576040519150601f19603f3d011682016040523d82523d6000602084013e61060e565b606091505b50508091505080610654576040517f08c379a000000000000000000000000000000000000000000000000000000000815260040161064b906111d6565b60405180910390fd5b6000600160003373ffffffffffffffffffffffffffffffffffffffff1673ffffffffffffffffffffffffffffffffffffffff1681526020019081526020016000208190555050565b60055481565b600360009054906101000a900473ffffffffffffffffffffffffffffffffffffffff1681565b6005546004546106d89190610fcc565b4211610719576040517f08c379a00000000000000000000000000000000000000000000000000000000081526004016107109061104c565b60405180910390fd5b600360009054906101000a900473ffffffffffffffffffffffffffffffffffffffff1673ffffffffffffffffffffffffffffffffffffffff163373ffffffffffffffffffffffffffffffffffffffff16146107a9576040517f08c379a00000000000000000000000000000000000000000000000000000000081526004016107a090610f7d565b60405180910390fd5b68f3f20b8dfa69d000006107bc47610aa0565b10156107fd576040517f08c379a00000000000000000000000000000000000000000000000000000000081526004016107f490611242565b60405180910390fd5b60003373ffffffffffffffffffffffffffffffffffffffff164760405161082390611175565b60006040518083038185875af1925050503d8060008114610860576040519150601f19603f3d011682016040523d82523d6000602084013e610865565b606091505b505080915050806108ab576040517f08c379a00000000000000000000000000000000000000000000000000000000081526004016108a2906111d6565b60405180910390fd5b6001600660146101000a81548160ff02191690831515021790555050565b60008054906101000a900473ffffffffffffffffffffffffffffffffffffffff1681565b60016020528060005260406000206000915090505481565b60025461091134610aa0565b1015610952576040517f08c379a0000000000000000000000000000000000000000000000000000000008152600401610949906112ae565b60405180910390fd5b6005546004546109629190610fcc565b42106109a3576040517f08c379a000000000000000000000000000000000000000000000000000000000815260040161099a9061131a565b60405180910390fd5b34600160003373ffffffffffffffffffffffffffffffffffffffff1673ffffffffffffffffffffffffffffffffffffffff16815260200190815260200160002060008282546109f29190610fcc565b92505081905550565b60008060008054906101000a900473ffffffffffffffffffffffffffffffffffffffff1673ffffffffffffffffffffffffffffffffffffffff1663feaf968c6040518163ffffffff1660e01b815260040160a060405180830381865afa158015610a69573d6000803e3d6000fd5b505050506040513d601f19601f82011682018060405250810190610a8d91906113bd565b5050509150508091505090565b60045481565b600080610aab6109fb565b90506305f5e1008184610abe9190611438565b610ac891906114a9565b915050919050565b600660009054906101000a900473ffffffffffffffffffffffffffffffffffffffff1673ffffffffffffffffffffffffffffffffffffffff163373ffffffffffffffffffffffffffffffffffffffff1614610b60576040517f08c379a0000000000000000000000000000000000000000000000000000000008152600401610b579061154c565b60405180910390fd5b80600160008473ffffffffffffffffffffffffffffffffffffffff1673ffffffffffffffffffffffffffffffffffffffff168152602001908152602001600020819055505050565b600660149054906101000a900460ff1681565b600360009054906101000a900473ffffffffffffffffffffffffffffffffffffffff1673ffffffffffffffffffffffffffffffffffffffff163373ffffffffffffffffffffffffffffffffffffffff1614610c4b576040517f08c379a0000000000000000000000000000000000000000000000000000000008152600401610c4290610f7d565b60405180910390fd5b80600360006101000a81548173ffffffffffffffffffffffffffffffffffffffff021916908373ffffffffffffffffffffffffffffffffffffffff16021790555050565b600080fd5b600073ffffffffffffffffffffffffffffffffffffffff82169050919050565b6000610cbf82610c94565b9050919050565b610ccf81610cb4565b8114610cda57600080fd5b50565b600081359050610cec81610cc6565b92915050565b600060208284031215610d0857610d07610c8f565b5b6000610d1684828501610cdd565b91505092915050565b610d2881610cb4565b82525050565b6000602082019050610d436000830184610d1f565b92915050565b6000819050919050565b610d5c81610d49565b82525050565b6000602082019050610d776000830184610d53565b92915050565b6000819050919050565b6000610da2610d9d610d9884610c94565b610d7d565b610c94565b9050919050565b6000610db482610d87565b9050919050565b6000610dc682610da9565b9050919050565b610dd681610dbb565b82525050565b6000602082019050610df16000830184610dcd565b92915050565b6000819050919050565b610e0a81610df7565b82525050565b6000602082019050610e256000830184610e01565b92915050565b610e3481610d49565b8114610e3f57600080fd5b50565b600081359050610e5181610e2b565b92915050565b600060208284031215610e6d57610e6c610c8f565b5b6000610e7b84828501610e42565b91505092915050565b60008060408385031215610e9b57610e9a610c8f565b5b6000610ea985828601610cdd565b9250506020610eba85828601610e42565b9150509250929050565b60008115159050919050565b610ed981610ec4565b82525050565b6000602082019050610ef46000830184610ed0565b92915050565b600082825260208201905092915050565b7f6f6e6c7920746865206f776e65722063616e20646f207468697320616374696f60008201527f6e21000000000000000000000000000000000000000000000000000000000000602082015250565b6000610f67602283610efa565b9150610f7282610f0b565b604082019050919050565b60006020820190508181036000830152610f9681610f5a565b9050919050565b7f4e487b7100000000000000000000000000000000000000000000000000000000600052601160045260246000fd5b6000610fd782610d49565b9150610fe283610d49565b9250828201905080821115610ffa57610ff9610f9d565b5b92915050565b7f77696e646f77206973206e6f7420636c6f736564000000000000000000000000600082015250565b6000611036601483610efa565b915061104182611000565b602082019050919050565b6000602082019050818103600083015261106581611029565b9050919050565b7f5461726765742069732072656163686564000000000000000000000000000000600082015250565b60006110a2601183610efa565b91506110ad8261106c565b602082019050919050565b600060208201905081810360008301526110d181611095565b9050919050565b7f7468657265206973206e6f2066756e6420666f7220796f752100000000000000600082015250565b600061110e601983610efa565b9150611119826110d8565b602082019050919050565b6000602082019050818103600083015261113d81611101565b9050919050565b600081905092915050565b50565b600061115f600083611144565b915061116a8261114f565b600082019050919050565b600061118082611152565b9150819050919050565b7f7478206661696c65640000000000000000000000000000000000000000000000600082015250565b60006111c0600983610efa565b91506111cb8261118a565b602082019050919050565b600060208201905081810360008301526111ef816111b3565b9050919050565b7f546172676574206973206e6f7420726561636865640000000000000000000000600082015250565b600061122c601583610efa565b9150611237826111f6565b602082019050919050565b6000602082019050818103600083015261125b8161121f565b9050919050565b7f796f75206d7573742073656e64206174206c6561737420312077656900000000600082015250565b6000611298601c83610efa565b91506112a382611262565b602082019050919050565b600060208201905081810360008301526112c78161128b565b9050919050565b7f77696e646f7720697320636c6f73656400000000000000000000000000000000600082015250565b6000611304601083610efa565b915061130f826112ce565b602082019050919050565b60006020820190508181036000830152611333816112f7565b9050919050565b600069ffffffffffffffffffff82169050919050565b6113598161133a565b811461136457600080fd5b50565b60008151905061137681611350565b92915050565b61138581610df7565b811461139057600080fd5b50565b6000815190506113a28161137c565b92915050565b6000815190506113b781610e2b565b92915050565b600080600080600060a086880312156113d9576113d8610c8f565b5b60006113e788828901611367565b95505060206113f888828901611393565b9450506040611409888289016113a8565b935050606061141a888289016113a8565b925050608061142b88828901611367565b9150509295509295909350565b600061144382610d49565b915061144e83610d49565b925082820261145c81610d49565b9150828204841483151761147357611472610f9d565b5b5092915050565b7f4e487b7100000000000000000000000000000000000000000000000000000000600052601260045260246000fd5b60006114b482610d49565b91506114bf83610d49565b9250826114cf576114ce61147a565b5b828204905092915050565b7f796f7520646f206e6f742068617665207065726d697373696f6e20746f20636160008201527f6c6c20746869732066756e6374696f6e00000000000000000000000000000000602082015250565b6000611536603083610efa565b9150611541826114da565b604082019050919050565b6000602082019050818103600083015261156581611529565b905091905056fea26469706673582212201f453ec4766bc5861ae15097fc23d5f7d24679c02ea282011985ff2a325c4eb464736f6c634300081c0033",
  "devdoc": {
    "kind": "dev",
    "methods": {},
    "version": 1
  },
  "userdoc": {
    "kind": "user",
    "methods": {
      "constructor": {
        "notice": "Network: Sepolia Aggregator: BTC/USD Address: 0x694AA1769357215DE4FAC081bf1f309aDC325306"
      },
      "getChainlinkDataFeedLatestAnswer()": {
        "notice": "Returns the latest answer."
      }
    },
    "version": 1
  },
  "storageLayout": {
    "storage": [
      {
        "astId": 772,
        "contract": "contracts/FundMe.sol:FundMe",
        "label": "dataFeed",
        "offset": 0,
        "slot": "0",
        "type": "t_contract(AggregatorV3Interface)45"
      },
      {
        "astId": 776,
        "contract": "contracts/FundMe.sol:FundMe",
        "label": "fundersToAmount",
        "offset": 0,
        "slot": "1",
        "type": "t_mapping(t_address,t_uint256)"
      },
      {
        "astId": 783,
        "contract": "contracts/FundMe.sol:FundMe",
        "label": "MIN_VAL",
        "offset": 0,
        "slot": "2",
        "type": "t_uint256"
      },
      {
        "astId": 792,
        "contract": "contracts/FundMe.sol:FundMe",
        "label": "owner",
        "offset": 0,
        "slot": "3",
        "type": "t_address"
      },
      {
        "astId": 794,
        "contract": "contracts/FundMe.sol:FundMe",
        "label": "deploymentTimestamp",
        "offset": 0,
        "slot": "4",
        "type": "t_uint256"
      },
      {
        "astId": 796,
        "contract": "contracts/FundMe.sol:FundMe",
        "label": "locktime",
        "offset": 0,
        "slot": "5",
        "type": "t_uint256"
      },
      {
        "astId": 798,
        "contract": "contracts/FundMe.sol:FundMe",
        "label": "erc20Addr",
        "offset": 0,
        "slot": "6",
        "type": "t_address"
      },
      {
        "astId": 801,
        "contract": "contracts/FundMe.sol:FundMe",
        "label": "getFundSuccess",
        "offset": 20,
        "slot": "6",
        "type": "t_bool"
      }
    ],
    "types": {
      "t_address": {
        "encoding": "inplace",
        "label": "address",
        "numberOfBytes": "20"
      },
      "t_bool": {
        "encoding": "inplace",
        "label": "bool",
        "numberOfBytes": "1"
      },
      "t_contract(AggregatorV3Interface)45": {
        "encoding": "inplace",
        "label": "contract AggregatorV3Interface",
        "numberOfBytes": "20"
      },
      "t_mapping(t_address,t_uint256)": {
        "encoding": "mapping",
        "key": "t_address",
        "label": "mapping(address => uint256)",
        "numberOfBytes": "32",
        "value": "t_uint256"
      },
      "t_uint256": {
        "encoding": "inplace",
        "label": "uint256",
        "numberOfBytes": "32"
      }
    }
  }
}